:020000040000FA
:10000000600400206D020000710200007302000015
:100010007502000077020000790200000000000075
:100020000000000000000000000000007B02000053
:100030007D020000000000007F020000810200003D
:10004000830200008302000083020000830200009C
:10005000830200008302000083020000830200008C
:10006000830200008302000083020000830200007C
:10007000830200008302000083020000830200006C
:10008000830200008302000083020000830200005C
:10009000830200008302000083020000830200004C
:1000A000830200008302000083020000830200003C
:1000B000830200008302000083020000830200002C
:1000C000830200008302000083020000830200001C
:1000D000830200008302000083020000830200000C
:1000E00083020000830200008302000083020000FC
:1000F00083020000830200008302000083020000EC
:1001000083020000830200008302000083020000DB
:1001100083020000830200008302000083020000CB
:1001200083020000830200008302000083020000BB
:1001300083020000830200008302000083020000AB
:1001400000000000000000000000000000000000AF
:10015000830200008302000083020000830200008B
:10016000000000000000000000000000000000008F
:10017000000000000000000000000000000000007F
:10018000000000000000000000000000000000006F
:10019000000000000000000000000000000000005F
:1001A000000000000000000000000000000000004F
:1001B000830200008302000083020000830200002B
:1001C000830200008302000083020000830200001B
:1001D000830200008302000083020000830200000B
:1001E00083020000830200008302000083020000FB
:1001F00083020000830200008302000083020000EB
:10020000830200008302000083020000000000005F
:1002100083020000830200008302000083020000CA
:1002200083020000830200008302000083020000BA
:1002300083020000830200008302000083020000AA
:10024000830200008302000083020000830200009A
:10025000830200008302000083020000830200008A
:1002600083020000830200008302000000F00AB84D
:10027000FEE7FEE7FEE7FEE7FEE7FEE7FEE7FEE756
:10028000FEE7FEE700F002F800F02CF80AA090E884
:10029000000C82448344AAF10107DA4501D100F041
:1002A00021F8AFF2090EBAE80F0013F0010F18BFE2
:1002B000FB1A43F0010318477C0200008C02000087
:1002C0000023002400250026103A28BF78C1FBD85F
:1002D000520728BF30C148BF0B6070471FB51FBD14
:1002E00010B510BD00F029F81146FFF7F7FF00F038
:1002F000E9F800F047F803B4FFF7F2FF03BC00F0A1
:100300004FF8000072B6704762B67047EFF3108086
:1003100072B6704780F31088704730BF704702484C
:100320000249014A024B704760000020600400202F
:1003300060000020704770477047754600F02CF849
:10034000AE4605006946534620F00700854618B0C2
:1003500020B5FFF7E4FFBDE820404FF000064FF066
:1003600000074FF000084FF0000B21F00701AC46EA
:10037000ACE8C009ACE8C009ACE8C009ACE8C00909
:100380008D46704710B50446AFF300802046BDE8A7
:100390001040FFF7B0BF0000004870470000002089
:1003A00001491820ABBEFEE726000200704700009E
:1003B00008B50549009102E00099491E0091009995
:1003C0000029F9D108BD0000BC310C0018480068B4
:1003D00040F002001749C1F8080100BF1448006846
:1003E00000F002000228F9D11348006820F007004D
:1003F00011490860081D00686FF30B00091D0860B3
:100400000E48006840F007000C4908600B48203097
:10041000006820F0070009492031086006480C38C0
:10042000006840F0070004490C390860704700007C
:1004300008E10F4000E00F40285500400054004004
:100440001C48006840F010001B49C1F8080100BFBB
:100450001848006800F010001028F9D1174800680B
:1004600020F0030015490860081D00686FF30B00B9
:10047000091D08601248006820F003001049086058
:100480000F482030006820F003000D49203108603B
:100490000A481438006840F003000849143908601D
:1004A00006480C38006840F0030004490C39086025
:1004B0007047000008E10F4000E00F40284502406F
:1004C00000440240FFF782FFFFF7BAFF01201749FF
:1004D000C8612AE00220FFF76BFF1548C06800F0F2
:1004E000020080B11148C069C2B21048C06920F052
:1004F00007000E49C8610120FFF75AFF0B48C2618F
:100500000120FFF755FF0A48C06800F0010060B104
:100510000648C069042803D101200449C86104E0E9
:100520000248C06940000149C861D3E70040024069
:10053000005000404405000000000020600400005E
:04054000C0020000F5
:040000050000026D88
:00000001FF
